:100000000EC01DC0CDC01BC01AC019C018C017C07B
:1000100016C015C014C013C012C011C010C01124E6
:100020001FBECFE5D2E0DEBFCDBF10E0A0E6B0E05E
:1000300001C01D92A136B107E1F758D0BCC0E0CF96
:100040001F93CF93DF9310E0C4E2D4EF94D0CE019E
:100050000197F1F792D0CE010197F1F71F5F1430AD
:10006000A9F7DF91CF911F9108950F931F93CF931D
:10007000DF9392D010E0882309F411E000E0CAEF8A
:10008000D0E08AD0212F220F90E0882309F491E05C
:10009000122F192BCE010197F1F70F5F003511F0E8
:1000A0001F3F79F780E01F3F09F481E0DF91CF9196
:1000B0001F910F9108956CD086EA9EE00197F1F7A9
:1000C00069D01092600008955FD086EA9EE00197A3
:1000D000F1F75CD081E0809360000895809160002A
:1000E000882311F4F1DF0895E6DF08951F93CF937D
:1000F000DF9316D0A5DF4ED049D0DDDF3ED0C8EA71
:10010000D1E626D027D0B1DF182F49D0112329F00E
:10011000E5DF35D0CE010197F1F720D021D0F1CF26
:1001200022EE34E0C9010197F1F78EE087BB91E040
:1001300098BB16B880B58F6080BD80E28BBF95BB41
:10014000C9010197F1F785B7877E806185BF089562
:10015000F894089585B78F7D85BF089578940895A4
:1001600085B7806285BF85B7806285BF889585B772
:100170008F7D85BF0895C19A0895C198089588B369
:1001800092E0892788BB0895C39A0895C39808957B
:10019000C29A0895C298089586B38170089508950B
:1001A0001F920F920FB60F921124F8940F900FBE6A
:0A01B0000F901F901895F894FFCFF0
:00000001FF
