:100000000EC01DC089C01BC01AC019C018C017C0BF
:1000100016C015C014C013C012C011C010C01124E6
:100020001FBECFE5D2E0DEBFCDBF10E0A0E6B0E05E
:1000300001C01D92A136B107E1F71FD078C0E0CF13
:1000400064D061D082EE94E00197F1F760D0109215
:100050006000089556D05BD082EE94E00197F1F7EE
:1000600052D081E0809360000895809160008823E1
:1000700011F4F0DF0895E4DF0895CF93DF9311D0FA
:10008000DFDF38D0CEE3D9E420D021D042D088239E
:1000900029F4EBDF31D0CE010197F1F71CD01DD050
:1000A000F3CF84EC99E00197F1F78EE087BB91E004
:1000B00098BB16B880B58F6080BD80E28BBF95BBC2
:1000C00085B7877E806185BF0895F894089585B7C8
:1000D0008F7D85BF08957894089585B7806285BF28
:1000E00085B7806285BF889585B78F7D85BF089568
:1000F000C19A0895C198089588B392E0892788BB72
:100100000895C39A0895C3980895C29A0895C2980D
:10011000089586B3817008951F920F920FB60F92C3
:100120001124F8940F900FBE0F901F901895F8941B
:02013000FFCFFF
:00000001FF
