:1000000009C016C07FC014C013C012C011C010C0F8
:100010000FC00EC011241FBECFE9CDBF10E0A0E677
:10002000B0E001C01D92A136B107E1F71FD075C045
:10003000E7CF61D05ED082EE94E00197F1F75DD01A
:1000400010926000089553D058D082EE94E001974A
:10005000F1F74FD081E080936000089580916000B7
:10006000882311F4F0DF0895E4DF0895CF93DF9340
:1000700011D0DFDF35D0CEE3D9E41DD01ED03FD084
:10008000882329F4EBDF2ED0CE010197F1F719D0A8
:100090001AD0F3CF84EC99E00197F1F78EE087BB9B
:1000A00091E098BB16B880E28BBF95BB85B7877E81
:1000B000806185BF0895F894089585B78F7D85BFC9
:1000C00008957894089585B7806285BF85B780626A
:1000D00085BF889585B78F7D85BF0895C19A08959E
:1000E000C198089588B392E0892788BB0895C39A80
:1000F0000895C3980895C29A0895C298089586B342
:10010000817008951F920F920FB60F921124F894E8
:0E0110000F900FBE0F901F901895F894FFCF20
:00000001FF
