:1000000009C016C0C3C014C013C012C011C010C0B4
:100010000FC00EC011241FBECFE9CDBF10E0A0E677
:10002000B0E001C01D92A136B107E1F758D0B9C0C8
:10003000E7CF1F93CF93DF9310E0C4E2D4EF91D0CA
:10004000CE010197F1F78FD0CE010197F1F71F5F35
:100050001430A9F7DF91CF911F9108950F931F934B
:10006000CF93DF938FD010E0882309F411E000E0F4
:10007000CAEFD0E087D0212F220F90E0882309F427
:1000800091E0122F192BCE010197F1F70F5F003588
:1000900011F01F3F79F780E01F3F09F481E0DF9105
:1000A000CF911F910F91089569D086EA9EE0019744
:1000B000F1F766D01092600008955CD086EA9EE069
:1000C0000197F1F759D081E0809360000895809105
:1000D0006000882311F4F1DF0895E6DF08951F938F
:1000E000CF93DF9316D0A5DF4BD046D0DDDF3BD0DA
:1000F000C8EAD1E623D024D0B1DF182F46D011238F
:1001000029F0E5DF32D0CE010197F1F71DD01ED0E6
:10011000F1CF22EE34E0C9010197F1F78EE087BB01
:1001200091E098BB16B880E28BBF95BBC9010197DF
:10013000F1F785B7877E806185BF0895F8940895AB
:1001400085B78F7D85BF08957894089585B78062BF
:1001500085BF85B7806285BF889585B78F7D85BF50
:100160000895C19A0895C198089588B392E08927A7
:1001700088BB0895C39A0895C3980895C29A0895B4
:10018000C298089586B38170089508951F920F92C2
:100190000FB60F921124F8940F900FBE0F901F907E
:0601A0001895F894FFCF52
:00000001FF
