:1000000009C016C0BAC014C013C012C011C010C0BD
:100010000FC00EC011241FBECFE9CDBF10E0A0E677
:10002000B0E001C01D92A136B107E1F752D0B0C0D7
:10003000E7CFFF920F931F93CF93DF939AD020E0E7
:1000400030E0882311F421E030E0C0E0D0E090E11E
:10005000F92E8901000F111F8CD020E030E0882399
:1000600011F421E030E0202B312B8F2D8A95F1F710
:1000700021968FE0CF3FD80721F09FEF2F3F390720
:1000800041F780E02F5F3F4F09F481E0DF91CF918E
:100090001F910F91FF90089568D065D08AE698E18E
:1000A0000197F1F764D01092600008955AD05FD0A4
:1000B0008AE698E10197F1F756D081E080936000DD
:1000C000089580916000882311F4F0DF0895E4DF43
:1000D00008951F93CF93DF9313D0DEDF3BD0C8EAA0
:1000E000D1E623D024D0A5DF182F46D0112329F044
:1000F000E8DF32D0CE010197F1F71DD01ED0F1CF4D
:1001000022EE34E0C9010197F1F78EE087BB91E060
:1001100098BB16B880E28BBF95BBC9010197F1F778
:1001200085B7877E806185BF0895F894089585B767
:100130008F7D85BF08957894089585B7806285BFC7
:1001400085B7806285BF889585B78F7D85BF089507
:10015000C19A0895C198089588B392E0892788BB11
:100160000895C39A0895C3980895C29A0895C298AD
:10017000089586B38170089508951F920F920FB667
:100180000F921124F8940F900FBE0F901F901895A6
:04019000F894FFCF11
:00000001FF
