:020000000B28CB
:10000800DE00030E8312A0000A08A10076288316DA
:10001800FF239000831210288312AA01830132283B
:100028005E308312A3008030A200A20B1928A30B14
:1000380019280000831681019F0107308312990057
:100048009F018316990105100512851285148312E4
:1000580085018B01023083169600080014205D206C
:1000680097209E209D207E20003A031D3C283D2895
:1000780049286C20832062308312A9006530A800CB
:10008800A80B4428A90B442849289A2087203528FA
:100098000B2894208E2007308312A3007D30A20005
:1000A800A20B5428A30B5428912001308312AA00D4
:1000B80008008B20912007308312A3007D30A20016
:1000C800A20B6428A30B64288E208312AA010800BF
:1000D80083122A08031D7128722874284D20752858
:1000E8005D2008008B0121088A00200E8300DE0EA7
:1000F8005E0E0900003083128518013008000130B7
:1001080083128506080088308B006300080083127C
:1001180005160800831205120800831285120800CC
:1001280083128516080083120510080088308B009A
:06013800080008000800A9
:0207FE000034C5
:08400000FF3FFF3FFF3FFF3FC0
:02400E009431EB
:00000001FF
