:020000000B28CB
:10000800DE00030E8312A0000A08A100E42883166C
:10001800FF239000831210288312AD0183017B28EF
:10002800EC20003A031919281B2801301C2800303D
:100038008312A400A3013C282408A2002207A400DC
:10004800EC20003A031929282B2801302C280030ED
:10005800DF005F088312A404C730A2003328A20B74
:100068003228362837280130DF005F088312A307BB
:10007800503023020318412842284728240A031D28
:10008800462847282028240A03194B284D280130E0
:100098004E28003008008312A5010821023083127F
:1000A800A4004530A300A930A200A20B5928A30B35
:1000B8005928A40B59286028052102308312A4006E
:1000C8004530A300A930A200A20B6828A30B68281A
:1000D800A40B68286F280130DF005F088312A5078A
:1000E80004302502031C79287A28512808009D200D
:1000F8004F20F920FF20CB20052110210F211420AB
:100108008312AC000E2183122C0803198C288D2829
:100118009928DA20F12082308312AB00DD30AA0062
:10012800AA0B9428AB0B942899280B21F520812839
:100138000B285E308312A3008030A200A20BA228F5
:10014800A30BA2280000831681019F0107308312A8
:1001580099009F01831699010510051285128514CF
:10016800831285018B010230831696000800022154
:1001780014308312A3007930A200A20BC128A30B6C
:10018800C128C628FF2001308312AD000800FC20DA
:1001980014308312A3007930A200A20BD128A30B3C
:1001A800D128D628F9208312AD01080083122D0822
:1001B800031DDF28E028E228BB20E328CB20080025
:1001C8008B0121088A00200E8300DE0E5E0E0900D6
:1001D800003083128518013008000130831285062B
:1001E800080088308B00630008008312051208009D
:1001F80083120516080083128512080083128516DB
:1002080008008312051008008312051408008830BE
:0A0218008B00080008000800080031
:0207FE000034C5
:08400000FF3FFF3FFF3FFF3FC0
:02400E009431EB
:00000001FF
