:020000000A28CC
:10000800FE00030EC0000A08C100D0280B28CD014D
:10001800830163289B20003A03191328152801300F
:1000280016280030C500C40130284508C30043071E
:10003800C5009B20003A03192228242801302528CE
:100048000030FF007F08C5045330C300C30B2A28C3
:100058000130FF007F08C4075030440203183528D8
:1000680036283B28450A031D3A283B281928450A03
:1000780003193F2841280130422800300800C401F4
:10008800EC205230C3002930C200C20B4928C30BF0
:1000980049284E28EA205230C3002930C200C20B3A
:1000A8005328C30B532858280130FF007F08C40782
:1000B80004304402031C6128622844280800822076
:1000C8004320E220E620BA20EA20F220F1200E2088
:1000D800CC00EE204C080319722873287E28C7200C
:1000E800DF202130CB007630CA00CA0B7928CB0B31
:1000F80079280000F020D82069280A281830C30081
:100108005F30C200C20B8628C30B86288E018B0184
:10011800B90188010F308500860101308700083059
:1001280089009A0108309B00303090000800C20115
:10013800C20A0B1CA028A128AA289C1DA428A5280F
:10014800AA288519A828A928AA28C20142080800AF
:10015800E8200530C300DD30C200C20BB128C30B54
:10016800B128B628E6200130CD000800E42005308B
:10017800C300DD30C200C20BBF28C30BBF28C42890
:10018800E220CD0108004D08031DCB28CC28CE283D
:10019800AC20CF28BA2008008B0141088A00400E05
:1001A8008300FE0E7E0E09009A0108309B008830FD
:1001B8008B006300080001308506080085100800E0
:1001C8008514080005110800051508000510080029
:0E01D800051408009C0108000800080008003B
:08400000FF3FFF3FFF3FFF3FC0
:02400E00A03CD4
:00000001FF
