:020000000A28CC
:10000800FE00030EC0000A08C10077280B28CA01A9
:1000180083010E28282060209320972096204020D6
:10002800003A031D18281928242891206E208620BC
:10003800C330C900CD30C800C80B2028C90B202800
:1000480095207F2011280A28BC30C3000130C20047
:10005800C20B2C28C30B2C2831288E018B01B90127
:1000680088010F308500860101308700083089003B
:100078009A0108309B000800C201C20A0B1C4528DF
:1000880046284F289C1D49284A284F2885194D285D
:100098004E284F28C201420808008F208B200D30BF
:1000A800C300FB30C200C20B5728C30B57285C287B
:1000B8008D200130CA00080089208D200D30C30032
:1000C800FB30C200C20B6628C30B66286B288B2046
:1000D800CA0108004A08031D722873287528512090
:1000E8007628602008008B0141088A00400E8300B2
:1000F800FE0E7E0E09009A0108309B0088308B00A6
:100108006300080001308506080085140800851082
:10011800080005110800051508009C0108000510D5
:080128000800080008000800AF
:08400000FF3FFF3FFF3FFF3FC0
:02400E00A03CD4
:00000001FF
